{
  "_format": "hh-sol-artifact-1",
  "contractName": "MyEpicNFT",
  "sourceName": "contracts/MyEpicNFT.sol",
  "abi": [
    {
      "inputs": [],
      "stateMutability": "nonpayable",
      "type": "constructor"
    },
    {
      "anonymous": false,
      "inputs": [
        {
          "indexed": true,
          "internalType": "address",
          "name": "owner",
          "type": "address"
        },
        {
          "indexed": true,
          "internalType": "address",
          "name": "approved",
          "type": "address"
        },
        {
          "indexed": true,
          "internalType": "uint256",
          "name": "tokenId",
          "type": "uint256"
        }
      ],
      "name": "Approval",
      "type": "event"
    },
    {
      "anonymous": false,
      "inputs": [
        {
          "indexed": true,
          "internalType": "address",
          "name": "owner",
          "type": "address"
        },
        {
          "indexed": true,
          "internalType": "address",
          "name": "operator",
          "type": "address"
        },
        {
          "indexed": false,
          "internalType": "bool",
          "name": "approved",
          "type": "bool"
        }
      ],
      "name": "ApprovalForAll",
      "type": "event"
    },
    {
      "anonymous": false,
      "inputs": [
        {
          "indexed": false,
          "internalType": "address",
          "name": "sender",
          "type": "address"
        },
        {
          "indexed": false,
          "internalType": "uint256",
          "name": "tokenId",
          "type": "uint256"
        }
      ],
      "name": "NewEpicNFTMinted",
      "type": "event"
    },
    {
      "anonymous": false,
      "inputs": [
        {
          "indexed": true,
          "internalType": "address",
          "name": "from",
          "type": "address"
        },
        {
          "indexed": true,
          "internalType": "address",
          "name": "to",
          "type": "address"
        },
        {
          "indexed": true,
          "internalType": "uint256",
          "name": "tokenId",
          "type": "uint256"
        }
      ],
      "name": "Transfer",
      "type": "event"
    },
    {
      "inputs": [
        {
          "internalType": "address",
          "name": "to",
          "type": "address"
        },
        {
          "internalType": "uint256",
          "name": "tokenId",
          "type": "uint256"
        }
      ],
      "name": "approve",
      "outputs": [],
      "stateMutability": "nonpayable",
      "type": "function"
    },
    {
      "inputs": [
        {
          "internalType": "address",
          "name": "owner",
          "type": "address"
        }
      ],
      "name": "balanceOf",
      "outputs": [
        {
          "internalType": "uint256",
          "name": "",
          "type": "uint256"
        }
      ],
      "stateMutability": "view",
      "type": "function"
    },
    {
      "inputs": [
        {
          "internalType": "string",
          "name": "name",
          "type": "string"
        },
        {
          "internalType": "string",
          "name": "description",
          "type": "string"
        },
        {
          "internalType": "string",
          "name": "image",
          "type": "string"
        }
      ],
      "name": "createNFT",
      "outputs": [],
      "stateMutability": "nonpayable",
      "type": "function"
    },
    {
      "inputs": [
        {
          "internalType": "uint256",
          "name": "tokenId",
          "type": "uint256"
        }
      ],
      "name": "getApproved",
      "outputs": [
        {
          "internalType": "address",
          "name": "",
          "type": "address"
        }
      ],
      "stateMutability": "view",
      "type": "function"
    },
    {
      "inputs": [
        {
          "internalType": "address",
          "name": "owner",
          "type": "address"
        },
        {
          "internalType": "address",
          "name": "operator",
          "type": "address"
        }
      ],
      "name": "isApprovedForAll",
      "outputs": [
        {
          "internalType": "bool",
          "name": "",
          "type": "bool"
        }
      ],
      "stateMutability": "view",
      "type": "function"
    },
    {
      "inputs": [],
      "name": "name",
      "outputs": [
        {
          "internalType": "string",
          "name": "",
          "type": "string"
        }
      ],
      "stateMutability": "view",
      "type": "function"
    },
    {
      "inputs": [
        {
          "internalType": "uint256",
          "name": "tokenId",
          "type": "uint256"
        }
      ],
      "name": "ownerOf",
      "outputs": [
        {
          "internalType": "address",
          "name": "",
          "type": "address"
        }
      ],
      "stateMutability": "view",
      "type": "function"
    },
    {
      "inputs": [
        {
          "internalType": "address",
          "name": "from",
          "type": "address"
        },
        {
          "internalType": "address",
          "name": "to",
          "type": "address"
        },
        {
          "internalType": "uint256",
          "name": "tokenId",
          "type": "uint256"
        }
      ],
      "name": "safeTransferFrom",
      "outputs": [],
      "stateMutability": "nonpayable",
      "type": "function"
    },
    {
      "inputs": [
        {
          "internalType": "address",
          "name": "from",
          "type": "address"
        },
        {
          "internalType": "address",
          "name": "to",
          "type": "address"
        },
        {
          "internalType": "uint256",
          "name": "tokenId",
          "type": "uint256"
        },
        {
          "internalType": "bytes",
          "name": "_data",
          "type": "bytes"
        }
      ],
      "name": "safeTransferFrom",
      "outputs": [],
      "stateMutability": "nonpayable",
      "type": "function"
    },
    {
      "inputs": [
        {
          "internalType": "address",
          "name": "operator",
          "type": "address"
        },
        {
          "internalType": "bool",
          "name": "approved",
          "type": "bool"
        }
      ],
      "name": "setApprovalForAll",
      "outputs": [],
      "stateMutability": "nonpayable",
      "type": "function"
    },
    {
      "inputs": [
        {
          "internalType": "bytes4",
          "name": "interfaceId",
          "type": "bytes4"
        }
      ],
      "name": "supportsInterface",
      "outputs": [
        {
          "internalType": "bool",
          "name": "",
          "type": "bool"
        }
      ],
      "stateMutability": "view",
      "type": "function"
    },
    {
      "inputs": [],
      "name": "symbol",
      "outputs": [
        {
          "internalType": "string",
          "name": "",
          "type": "string"
        }
      ],
      "stateMutability": "view",
      "type": "function"
    },
    {
      "inputs": [
        {
          "internalType": "uint256",
          "name": "tokenId",
          "type": "uint256"
        }
      ],
      "name": "tokenURI",
      "outputs": [
        {
          "internalType": "string",
          "name": "",
          "type": "string"
        }
      ],
      "stateMutability": "view",
      "type": "function"
    },
    {
      "inputs": [
        {
          "internalType": "address",
          "name": "from",
          "type": "address"
        },
        {
          "internalType": "address",
          "name": "to",
          "type": "address"
        },
        {
          "internalType": "uint256",
          "name": "tokenId",
          "type": "uint256"
        }
      ],
      "name": "transferFrom",
      "outputs": [],
      "stateMutability": "nonpayable",
      "type": "function"
    }
  ],
  "bytecode": "0x60806040523480156200001157600080fd5b506040518060400160405280600581526020017f4d794e46540000000000000000000000000000000000000000000000000000008152506040518060400160405280600381526020017f4e46540000000000000000000000000000000000000000000000000000000000815250816000908051906020019062000096929190620001cf565b508060019080519060200190620000af929190620001cf565b505050620000fd6040518060400160405280601e81526020017f54686973206973206d79204e465420636f6e74726163742e2057686f612100008152506200010360201b62000d0a1760201c565b620003ac565b620001a3816040516024016200011a9190620002c0565b6040516020818303038152906040527f41304fac000000000000000000000000000000000000000000000000000000007bffffffffffffffffffffffffffffffffffffffffffffffffffffffff19166020820180517bffffffffffffffffffffffffffffffffffffffffffffffffffffffff8381831617835250505050620001a660201b60201c565b50565b60008151905060006a636f6e736f6c652e6c6f679050602083016000808483855afa5050505050565b828054620001dd9062000336565b90600052602060002090601f0160209004810192826200020157600085556200024d565b82601f106200021c57805160ff19168380011785556200024d565b828001600101855582156200024d579182015b828111156200024c5782518255916020019190600101906200022f565b5b5090506200025c919062000260565b5090565b5b808211156200027b57600081600090555060010162000261565b5090565b60006200028c82620002e4565b620002988185620002ef565b9350620002aa81856020860162000300565b620002b5816200039b565b840191505092915050565b60006020820190508181036000830152620002dc81846200027f565b905092915050565b600081519050919050565b600082825260208201905092915050565b60005b838110156200032057808201518184015260208101905062000303565b8381111562000330576000848401525b50505050565b600060028204905060018216806200034f57607f821691505b602082108114156200036657620003656200036c565b5b50919050565b7f4e487b7100000000000000000000000000000000000000000000000000000000600052602260045260246000fd5b6000601f19601f8301169050919050565b6130b880620003bc6000396000f3fe608060405234801561001057600080fd5b50600436106100ea5760003560e01c806370a082311161008c578063a22cb46511610066578063a22cb4651461025b578063b88d4fde14610277578063c87b56dd14610293578063e985e9c5146102c3576100ea565b806370a08231146101f157806395d89b41146102215780639f8e9dbc1461023f576100ea565b8063095ea7b3116100c8578063095ea7b31461016d57806323b872dd1461018957806342842e0e146101a55780636352211e146101c1576100ea565b806301ffc9a7146100ef57806306fdde031461011f578063081812fc1461013d575b600080fd5b61010960048036038101906101049190611f33565b6102f3565b6040516101169190612976565b60405180910390f35b6101276103d5565b6040516101349190612991565b60405180910390f35b6101576004803603810190610152919061201c565b610467565b60405161016491906128e6565b60405180910390f35b61018760048036038101906101829190611ef7565b6104ec565b005b6101a3600480360381019061019e9190611df1565b610604565b005b6101bf60048036038101906101ba9190611df1565b610664565b005b6101db60048036038101906101d6919061201c565b610684565b6040516101e891906128e6565b60405180910390f35b61020b60048036038101906102069190611d8c565b610736565b6040516102189190612bb3565b60405180910390f35b6102296107ee565b6040516102369190612991565b60405180910390f35b61025960048036038101906102549190611f85565b610880565b005b61027560048036038101906102709190611ebb565b610941565b005b610291600480360381019061028c9190611e40565b610ac2565b005b6102ad60048036038101906102a8919061201c565b610b24565b6040516102ba9190612991565b60405180910390f35b6102dd60048036038101906102d89190611db5565b610c76565b6040516102ea9190612976565b60405180910390f35b60007f80ac58cd000000000000000000000000000000000000000000000000000000007bffffffffffffffffffffffffffffffffffffffffffffffffffffffff1916827bffffffffffffffffffffffffffffffffffffffffffffffffffffffff191614806103be57507f5b5e139f000000000000000000000000000000000000000000000000000000007bffffffffffffffffffffffffffffffffffffffffffffffffffffffff1916827bffffffffffffffffffffffffffffffffffffffffffffffffffffffff1916145b806103ce57506103cd82610da3565b5b9050919050565b6060600080546103e490612e6d565b80601f016020809104026020016040519081016040528092919081815260200182805461041090612e6d565b801561045d5780601f106104325761010080835404028352916020019161045d565b820191906000526020600020905b81548152906001019060200180831161044057829003601f168201915b5050505050905090565b600061047282610e0d565b6104b1576040517f08c379a00000000000000000000000000000000000000000000000000000000081526004016104a890612b13565b60405180910390fd5b6004600083815260200190815260200160002060009054906101000a900473ffffffffffffffffffffffffffffffffffffffff169050919050565b60006104f782610684565b90508073ffffffffffffffffffffffffffffffffffffffff168373ffffffffffffffffffffffffffffffffffffffff161415610568576040517f08c379a000000000000000000000000000000000000000000000000000000000815260040161055f90612b73565b60405180910390fd5b8073ffffffffffffffffffffffffffffffffffffffff16610587610e79565b73ffffffffffffffffffffffffffffffffffffffff1614806105b657506105b5816105b0610e79565b610c76565b5b6105f5576040517f08c379a00000000000000000000000000000000000000000000000000000000081526004016105ec90612a53565b60405180910390fd5b6105ff8383610e81565b505050565b61061561060f610e79565b82610f3a565b610654576040517f08c379a000000000000000000000000000000000000000000000000000000000815260040161064b90612b93565b60405180910390fd5b61065f838383611018565b505050565b61067f83838360405180602001604052806000815250610ac2565b505050565b6000806002600084815260200190815260200160002060009054906101000a900473ffffffffffffffffffffffffffffffffffffffff169050600073ffffffffffffffffffffffffffffffffffffffff168173ffffffffffffffffffffffffffffffffffffffff16141561072d576040517f08c379a000000000000000000000000000000000000000000000000000000000815260040161072490612a93565b60405180910390fd5b80915050919050565b60008073ffffffffffffffffffffffffffffffffffffffff168273ffffffffffffffffffffffffffffffffffffffff1614156107a7576040517f08c379a000000000000000000000000000000000000000000000000000000000815260040161079e90612a73565b60405180910390fd5b600360008373ffffffffffffffffffffffffffffffffffffffff1673ffffffffffffffffffffffffffffffffffffffff168152602001908152602001600020549050919050565b6060600180546107fd90612e6d565b80601f016020809104026020016040519081016040528092919081815260200182805461082990612e6d565b80156108765780601f1061084b57610100808354040283529160200191610876565b820191906000526020600020905b81548152906001019060200180831161085957829003601f168201915b5050505050905090565b600061088c6007611274565b905060006108bc8585856040516020016108a893929190612867565b604051602081830303815290604052611282565b90506000816040516020016108d191906128c4565b60405160208183030381529060405290506108ec3384611440565b6108f6838261145e565b61090060076114d2565b7febb98688741ffa4c7589bf325de30cf7becb63de567842e1ccdb6cb949fdc82c338460405161093192919061294d565b60405180910390a1505050505050565b610949610e79565b73ffffffffffffffffffffffffffffffffffffffff168273ffffffffffffffffffffffffffffffffffffffff1614156109b7576040517f08c379a00000000000000000000000000000000000000000000000000000000081526004016109ae90612a13565b60405180910390fd5b80600560006109c4610e79565b73ffffffffffffffffffffffffffffffffffffffff1673ffffffffffffffffffffffffffffffffffffffff16815260200190815260200160002060008473ffffffffffffffffffffffffffffffffffffffff1673ffffffffffffffffffffffffffffffffffffffff16815260200190815260200160002060006101000a81548160ff0219169083151502179055508173ffffffffffffffffffffffffffffffffffffffff16610a71610e79565b73ffffffffffffffffffffffffffffffffffffffff167f17307eab39ab6107e8899845ad3d59bd9653f200f220920489ca2b5937696c3183604051610ab69190612976565b60405180910390a35050565b610ad3610acd610e79565b83610f3a565b610b12576040517f08c379a0000000000000000000000000000000000000000000000000000000008152600401610b0990612b93565b60405180910390fd5b610b1e848484846114e8565b50505050565b6060610b2f82610e0d565b610b6e576040517f08c379a0000000000000000000000000000000000000000000000000000000008152600401610b6590612af3565b60405180910390fd5b6000600660008481526020019081526020016000208054610b8e90612e6d565b80601f0160208091040260200160405190810160405280929190818152602001828054610bba90612e6d565b8015610c075780601f10610bdc57610100808354040283529160200191610c07565b820191906000526020600020905b815481529060010190602001808311610bea57829003601f168201915b505050505090506000610c18611544565b9050600081511415610c2e578192505050610c71565b600082511115610c63578082604051602001610c4b929190612843565b60405160208183030381529060405292505050610c71565b610c6c8461155b565b925050505b919050565b6000600560008473ffffffffffffffffffffffffffffffffffffffff1673ffffffffffffffffffffffffffffffffffffffff16815260200190815260200160002060008373ffffffffffffffffffffffffffffffffffffffff1673ffffffffffffffffffffffffffffffffffffffff16815260200190815260200160002060009054906101000a900460ff16905092915050565b610da081604051602401610d1e9190612991565b6040516020818303038152906040527f41304fac000000000000000000000000000000000000000000000000000000007bffffffffffffffffffffffffffffffffffffffffffffffffffffffff19166020820180517bffffffffffffffffffffffffffffffffffffffffffffffffffffffff8381831617835250505050611602565b50565b60007f01ffc9a7000000000000000000000000000000000000000000000000000000007bffffffffffffffffffffffffffffffffffffffffffffffffffffffff1916827bffffffffffffffffffffffffffffffffffffffffffffffffffffffff1916149050919050565b60008073ffffffffffffffffffffffffffffffffffffffff166002600084815260200190815260200160002060009054906101000a900473ffffffffffffffffffffffffffffffffffffffff1673ffffffffffffffffffffffffffffffffffffffff1614159050919050565b600033905090565b816004600083815260200190815260200160002060006101000a81548173ffffffffffffffffffffffffffffffffffffffff021916908373ffffffffffffffffffffffffffffffffffffffff160217905550808273ffffffffffffffffffffffffffffffffffffffff16610ef483610684565b73ffffffffffffffffffffffffffffffffffffffff167f8c5be1e5ebec7d5bd14f71427d1e84f3dd0314c0f7b2291e5b200ac8c7c3b92560405160405180910390a45050565b6000610f4582610e0d565b610f84576040517f08c379a0000000000000000000000000000000000000000000000000000000008152600401610f7b90612a33565b60405180910390fd5b6000610f8f83610684565b90508073ffffffffffffffffffffffffffffffffffffffff168473ffffffffffffffffffffffffffffffffffffffff161480610ffe57508373ffffffffffffffffffffffffffffffffffffffff16610fe684610467565b73ffffffffffffffffffffffffffffffffffffffff16145b8061100f575061100e8185610c76565b5b91505092915050565b8273ffffffffffffffffffffffffffffffffffffffff1661103882610684565b73ffffffffffffffffffffffffffffffffffffffff161461108e576040517f08c379a000000000000000000000000000000000000000000000000000000000815260040161108590612b33565b60405180910390fd5b600073ffffffffffffffffffffffffffffffffffffffff168273ffffffffffffffffffffffffffffffffffffffff1614156110fe576040517f08c379a00000000000000000000000000000000000000000000000000000000081526004016110f5906129f3565b60405180910390fd5b61110983838361162b565b611114600082610e81565b6001600360008573ffffffffffffffffffffffffffffffffffffffff1673ffffffffffffffffffffffffffffffffffffffff16815260200190815260200160002060008282546111649190612d83565b925050819055506001600360008473ffffffffffffffffffffffffffffffffffffffff1673ffffffffffffffffffffffffffffffffffffffff16815260200190815260200160002060008282546111bb9190612ca2565b92505081905550816002600083815260200190815260200160002060006101000a81548173ffffffffffffffffffffffffffffffffffffffff021916908373ffffffffffffffffffffffffffffffffffffffff160217905550808273ffffffffffffffffffffffffffffffffffffffff168473ffffffffffffffffffffffffffffffffffffffff167fddf252ad1be2c89b69c2b068fc378daa952ba7f163c4a11628f55a4df523b3ef60405160405180910390a4505050565b600081600001549050919050565b606060008251905060008114156112ab576040518060200160405280600081525091505061143b565b600060036002836112bc9190612ca2565b6112c69190612cf8565b60046112d29190612d29565b905060006020826112e39190612ca2565b67ffffffffffffffff811115611322577f4e487b7100000000000000000000000000000000000000000000000000000000600052604160045260246000fd5b6040519080825280601f01601f1916602001820160405280156113545781602001600182028036833780820191505090505b5090506000604051806060016040528060408152602001613043604091399050600181016020830160005b868110156113f85760038101905062ffffff818a015116603f8160121c168401518060081b905060ff603f83600c1c1686015116810190508060081b905060ff603f8360061c1686015116810190508060081b905060ff603f831686015116810190508060e01b9050808452600484019350505061137f565b50600386066001811461141257600281146114225761142d565b613d3d60f01b600283035261142d565b603d60f81b60018303525b508484525050819450505050505b919050565b61145a828260405180602001604052806000815250611630565b5050565b61146782610e0d565b6114a6576040517f08c379a000000000000000000000000000000000000000000000000000000000815260040161149d90612ab3565b60405180910390fd5b806006600084815260200190815260200160002090805190602001906114cd929190611bb0565b505050565b6001816000016000828254019250508190555050565b6114f3848484611018565b6114ff8484848461168b565b61153e576040517f08c379a0000000000000000000000000000000000000000000000000000000008152600401611535906129b3565b60405180910390fd5b50505050565b606060405180602001604052806000815250905090565b606061156682610e0d565b6115a5576040517f08c379a000000000000000000000000000000000000000000000000000000000815260040161159c90612b53565b60405180910390fd5b60006115af611544565b905060008151116115cf57604051806020016040528060008152506115fa565b806115d984611822565b6040516020016115ea929190612843565b6040516020818303038152906040525b915050919050565b60008151905060006a636f6e736f6c652e6c6f679050602083016000808483855afa5050505050565b505050565b61163a83836119cf565b611647600084848461168b565b611686576040517f08c379a000000000000000000000000000000000000000000000000000000000815260040161167d906129b3565b60405180910390fd5b505050565b60006116ac8473ffffffffffffffffffffffffffffffffffffffff16611b9d565b15611815578373ffffffffffffffffffffffffffffffffffffffff1663150b7a026116d5610e79565b8786866040518563ffffffff1660e01b81526004016116f79493929190612901565b602060405180830381600087803b15801561171157600080fd5b505af192505050801561174257506040513d601f19601f8201168201806040525081019061173f9190611f5c565b60015b6117c5573d8060008114611772576040519150601f19603f3d011682016040523d82523d6000602084013e611777565b606091505b506000815114156117bd576040517f08c379a00000000000000000000000000000000000000000000000000000000081526004016117b4906129b3565b60405180910390fd5b805181602001fd5b63150b7a0260e01b7bffffffffffffffffffffffffffffffffffffffffffffffffffffffff1916817bffffffffffffffffffffffffffffffffffffffffffffffffffffffff19161491505061181a565b600190505b949350505050565b6060600082141561186a576040518060400160405280600181526020017f300000000000000000000000000000000000000000000000000000000000000081525090506119ca565b600082905060005b6000821461189c57808061188590612e9f565b915050600a826118959190612cf8565b9150611872565b60008167ffffffffffffffff8111156118de577f4e487b7100000000000000000000000000000000000000000000000000000000600052604160045260246000fd5b6040519080825280601f01601f1916602001820160405280156119105781602001600182028036833780820191505090505b5090505b600085146119c3576001826119299190612d83565b9150600a856119389190612ee8565b60306119449190612ca2565b60f81b818381518110611980577f4e487b7100000000000000000000000000000000000000000000000000000000600052603260045260246000fd5b60200101907effffffffffffffffffffffffffffffffffffffffffffffffffffffffffffff1916908160001a905350600a856119bc9190612cf8565b9450611914565b8093505050505b919050565b600073ffffffffffffffffffffffffffffffffffffffff168273ffffffffffffffffffffffffffffffffffffffff161415611a3f576040517f08c379a0000000000000000000000000000000000000000000000000000000008152600401611a3690612ad3565b60405180910390fd5b611a4881610e0d565b15611a88576040517f08c379a0000000000000000000000000000000000000000000000000000000008152600401611a7f906129d3565b60405180910390fd5b611a946000838361162b565b6001600360008473ffffffffffffffffffffffffffffffffffffffff1673ffffffffffffffffffffffffffffffffffffffff1681526020019081526020016000206000828254611ae49190612ca2565b92505081905550816002600083815260200190815260200160002060006101000a81548173ffffffffffffffffffffffffffffffffffffffff021916908373ffffffffffffffffffffffffffffffffffffffff160217905550808273ffffffffffffffffffffffffffffffffffffffff16600073ffffffffffffffffffffffffffffffffffffffff167fddf252ad1be2c89b69c2b068fc378daa952ba7f163c4a11628f55a4df523b3ef60405160405180910390a45050565b600080823b905060008111915050919050565b828054611bbc90612e6d565b90600052602060002090601f016020900481019282611bde5760008555611c25565b82601f10611bf757805160ff1916838001178555611c25565b82800160010185558215611c25579182015b82811115611c24578251825591602001919060010190611c09565b5b509050611c329190611c36565b5090565b5b80821115611c4f576000816000905550600101611c37565b5090565b6000611c66611c6184612bff565b612bce565b905082815260208101848484011115611c7e57600080fd5b611c89848285612e2b565b509392505050565b6000611ca4611c9f84612c2f565b612bce565b905082815260208101848484011115611cbc57600080fd5b611cc7848285612e2b565b509392505050565b600081359050611cde81612fe6565b92915050565b600081359050611cf381612ffd565b92915050565b600081359050611d0881613014565b92915050565b600081519050611d1d81613014565b92915050565b600082601f830112611d3457600080fd5b8135611d44848260208601611c53565b91505092915050565b600082601f830112611d5e57600080fd5b8135611d6e848260208601611c91565b91505092915050565b600081359050611d868161302b565b92915050565b600060208284031215611d9e57600080fd5b6000611dac84828501611ccf565b91505092915050565b60008060408385031215611dc857600080fd5b6000611dd685828601611ccf565b9250506020611de785828601611ccf565b9150509250929050565b600080600060608486031215611e0657600080fd5b6000611e1486828701611ccf565b9350506020611e2586828701611ccf565b9250506040611e3686828701611d77565b9150509250925092565b60008060008060808587031215611e5657600080fd5b6000611e6487828801611ccf565b9450506020611e7587828801611ccf565b9350506040611e8687828801611d77565b925050606085013567ffffffffffffffff811115611ea357600080fd5b611eaf87828801611d23565b91505092959194509250565b60008060408385031215611ece57600080fd5b6000611edc85828601611ccf565b9250506020611eed85828601611ce4565b9150509250929050565b60008060408385031215611f0a57600080fd5b6000611f1885828601611ccf565b9250506020611f2985828601611d77565b9150509250929050565b600060208284031215611f4557600080fd5b6000611f5384828501611cf9565b91505092915050565b600060208284031215611f6e57600080fd5b6000611f7c84828501611d0e565b91505092915050565b600080600060608486031215611f9a57600080fd5b600084013567ffffffffffffffff811115611fb457600080fd5b611fc086828701611d4d565b935050602084013567ffffffffffffffff811115611fdd57600080fd5b611fe986828701611d4d565b925050604084013567ffffffffffffffff81111561200657600080fd5b61201286828701611d4d565b9150509250925092565b60006020828403121561202e57600080fd5b600061203c84828501611d77565b91505092915050565b61204e81612db7565b82525050565b61205d81612dc9565b82525050565b600061206e82612c5f565b6120788185612c75565b9350612088818560208601612e3a565b61209181612fd5565b840191505092915050565b60006120a782612c6a565b6120b18185612c86565b93506120c1818560208601612e3a565b6120ca81612fd5565b840191505092915050565b60006120e082612c6a565b6120ea8185612c97565b93506120fa818560208601612e3a565b80840191505092915050565b6000612113603283612c86565b91507f4552433732313a207472616e7366657220746f206e6f6e20455243373231526560008301527f63656976657220696d706c656d656e74657200000000000000000000000000006020830152604082019050919050565b6000612179601c83612c86565b91507f4552433732313a20746f6b656e20616c7265616479206d696e746564000000006000830152602082019050919050565b60006121b9602483612c86565b91507f4552433732313a207472616e7366657220746f20746865207a65726f2061646460008301527f72657373000000000000000000000000000000000000000000000000000000006020830152604082019050919050565b600061221f601983612c86565b91507f4552433732313a20617070726f766520746f2063616c6c6572000000000000006000830152602082019050919050565b600061225f602c83612c86565b91507f4552433732313a206f70657261746f7220717565727920666f72206e6f6e657860008301527f697374656e7420746f6b656e00000000000000000000000000000000000000006020830152604082019050919050565b60006122c5603883612c86565b91507f4552433732313a20617070726f76652063616c6c6572206973206e6f74206f7760008301527f6e6572206e6f7220617070726f76656420666f7220616c6c00000000000000006020830152604082019050919050565b600061232b602a83612c86565b91507f4552433732313a2062616c616e636520717565727920666f7220746865207a6560008301527f726f2061646472657373000000000000000000000000000000000000000000006020830152604082019050919050565b6000612391602983612c86565b91507f4552433732313a206f776e657220717565727920666f72206e6f6e657869737460008301527f656e7420746f6b656e00000000000000000000000000000000000000000000006020830152604082019050919050565b60006123f7602e83612c86565b91507f45524337323155524953746f726167653a2055524920736574206f66206e6f6e60008301527f6578697374656e7420746f6b656e0000000000000000000000000000000000006020830152604082019050919050565b600061245d600283612c97565b91507f227d0000000000000000000000000000000000000000000000000000000000006000830152600282019050919050565b600061249d602083612c86565b91507f4552433732313a206d696e7420746f20746865207a65726f20616464726573736000830152602082019050919050565b60006124dd600d83612c97565b91507f222c2022696d616765223a2022000000000000000000000000000000000000006000830152600d82019050919050565b600061251d603183612c86565b91507f45524337323155524953746f726167653a2055524920717565727920666f722060008301527f6e6f6e6578697374656e7420746f6b656e0000000000000000000000000000006020830152604082019050919050565b6000612583602c83612c86565b91507f4552433732313a20617070726f76656420717565727920666f72206e6f6e657860008301527f697374656e7420746f6b656e00000000000000000000000000000000000000006020830152604082019050919050565b60006125e9601283612c97565b91507f222c20226465736372697074696f6e223a2200000000000000000000000000006000830152601282019050919050565b6000612629602983612c86565b91507f4552433732313a207472616e73666572206f6620746f6b656e2074686174206960008301527f73206e6f74206f776e00000000000000000000000000000000000000000000006020830152604082019050919050565b600061268f602f83612c86565b91507f4552433732314d657461646174613a2055524920717565727920666f72206e6f60008301527f6e6578697374656e7420746f6b656e00000000000000000000000000000000006020830152604082019050919050565b60006126f5600a83612c97565b91507f7b226e616d65223a2022000000000000000000000000000000000000000000006000830152600a82019050919050565b6000612735602183612c86565b91507f4552433732313a20617070726f76616c20746f2063757272656e74206f776e6560008301527f72000000000000000000000000000000000000000000000000000000000000006020830152604082019050919050565b600061279b601d83612c97565b91507f646174613a6170706c69636174696f6e2f6a736f6e3b6261736536342c0000006000830152601d82019050919050565b60006127db603183612c86565b91507f4552433732313a207472616e736665722063616c6c6572206973206e6f74206f60008301527f776e6572206e6f7220617070726f7665640000000000000000000000000000006020830152604082019050919050565b61283d81612e21565b82525050565b600061284f82856120d5565b915061285b82846120d5565b91508190509392505050565b6000612872826126e8565b915061287e82866120d5565b9150612889826125dc565b915061289582856120d5565b91506128a0826124d0565b91506128ac82846120d5565b91506128b782612450565b9150819050949350505050565b60006128cf8261278e565b91506128db82846120d5565b915081905092915050565b60006020820190506128fb6000830184612045565b92915050565b60006080820190506129166000830187612045565b6129236020830186612045565b6129306040830185612834565b81810360608301526129428184612063565b905095945050505050565b60006040820190506129626000830185612045565b61296f6020830184612834565b9392505050565b600060208201905061298b6000830184612054565b92915050565b600060208201905081810360008301526129ab818461209c565b905092915050565b600060208201905081810360008301526129cc81612106565b9050919050565b600060208201905081810360008301526129ec8161216c565b9050919050565b60006020820190508181036000830152612a0c816121ac565b9050919050565b60006020820190508181036000830152612a2c81612212565b9050919050565b60006020820190508181036000830152612a4c81612252565b9050919050565b60006020820190508181036000830152612a6c816122b8565b9050919050565b60006020820190508181036000830152612a8c8161231e565b9050919050565b60006020820190508181036000830152612aac81612384565b9050919050565b60006020820190508181036000830152612acc816123ea565b9050919050565b60006020820190508181036000830152612aec81612490565b9050919050565b60006020820190508181036000830152612b0c81612510565b9050919050565b60006020820190508181036000830152612b2c81612576565b9050919050565b60006020820190508181036000830152612b4c8161261c565b9050919050565b60006020820190508181036000830152612b6c81612682565b9050919050565b60006020820190508181036000830152612b8c81612728565b9050919050565b60006020820190508181036000830152612bac816127ce565b9050919050565b6000602082019050612bc86000830184612834565b92915050565b6000604051905081810181811067ffffffffffffffff82111715612bf557612bf4612fa6565b5b8060405250919050565b600067ffffffffffffffff821115612c1a57612c19612fa6565b5b601f19601f8301169050602081019050919050565b600067ffffffffffffffff821115612c4a57612c49612fa6565b5b601f19601f8301169050602081019050919050565b600081519050919050565b600081519050919050565b600082825260208201905092915050565b600082825260208201905092915050565b600081905092915050565b6000612cad82612e21565b9150612cb883612e21565b9250827fffffffffffffffffffffffffffffffffffffffffffffffffffffffffffffffff03821115612ced57612cec612f19565b5b828201905092915050565b6000612d0382612e21565b9150612d0e83612e21565b925082612d1e57612d1d612f48565b5b828204905092915050565b6000612d3482612e21565b9150612d3f83612e21565b9250817fffffffffffffffffffffffffffffffffffffffffffffffffffffffffffffffff0483118215151615612d7857612d77612f19565b5b828202905092915050565b6000612d8e82612e21565b9150612d9983612e21565b925082821015612dac57612dab612f19565b5b828203905092915050565b6000612dc282612e01565b9050919050565b60008115159050919050565b60007fffffffff0000000000000000000000000000000000000000000000000000000082169050919050565b600073ffffffffffffffffffffffffffffffffffffffff82169050919050565b6000819050919050565b82818337600083830152505050565b60005b83811015612e58578082015181840152602081019050612e3d565b83811115612e67576000848401525b50505050565b60006002820490506001821680612e8557607f821691505b60208210811415612e9957612e98612f77565b5b50919050565b6000612eaa82612e21565b91507fffffffffffffffffffffffffffffffffffffffffffffffffffffffffffffffff821415612edd57612edc612f19565b5b600182019050919050565b6000612ef382612e21565b9150612efe83612e21565b925082612f0e57612f0d612f48565b5b828206905092915050565b7f4e487b7100000000000000000000000000000000000000000000000000000000600052601160045260246000fd5b7f4e487b7100000000000000000000000000000000000000000000000000000000600052601260045260246000fd5b7f4e487b7100000000000000000000000000000000000000000000000000000000600052602260045260246000fd5b7f4e487b7100000000000000000000000000000000000000000000000000000000600052604160045260246000fd5b6000601f19601f8301169050919050565b612fef81612db7565b8114612ffa57600080fd5b50565b61300681612dc9565b811461301157600080fd5b50565b61301d81612dd5565b811461302857600080fd5b50565b61303481612e21565b811461303f57600080fd5b5056fe4142434445464748494a4b4c4d4e4f505152535455565758595a6162636465666768696a6b6c6d6e6f707172737475767778797a303132333435363738392b2fa26469706673582212200c9b3ec62f46ffea25dcc83601c22f58c94a1fa803301e84b4b7ce57cf008d2c64736f6c63430008000033",
  "linkReferences": {},
  "deployedLinkReferences": {}
}